S00F00006F7074696D697A2E7372656309
S11300000C9434000C9449000C9449000C9449005D
S11300100C9449000C9449000C9449000C94490038
S11300200C9449000C9449000C9449000C94490028
S11300300C9449000C9449000C9449000C94490018
S11300400C9449000C9449000C9449000C94490008
S11300500C9449000C9449000C9449000C944900F8
S11300600C9449000C94490011241FBECFEFD8E032
S1130070DEBFCDBF13E0A0E0B1E0E6E0F1E502C0F1
S113008005900D92AA33B107D9F70E9410280C9459
S113009081280C9400001F93CF93DF93CDB7DEB774
S11300A0FC0115859C01235F3F4FFC014185F9014B
S11300B040839C01275F3F4FFC014581F901408348
S11300C09C012B5F3F4FFC014181F90140839C015E
S11300D02F5F3F4FF9011083FC0116859C01225FBD
S11300E03F4FFC014681F90140839C012A5F3F4F49
S11300F0F9011083FC0112859C01265F3F4FFC012E
S11301004281F90140839C012E5F3F4FF901108326
S1130110FC0113819C012D5F3F4FFC014781F901D4
S113012040839C01295F3F4FFC014385F9014083D3
S11301309C01255F3F4FFC014785F90140830F96E1
S1130140FC0110830000DF91CF911F910895AF92BD
S1130150BF92CF92DF92EF92FF920F931F93CF93B0
S1130160DF93CDB7DEB7E4970FB6F894DEBF0FBECA
S1130170CDBF7C01CB018A0120EAE20EF11CFC0117
S11301803081F70120812327F801208398012F5F14
S11301903F4FAC014F5F5F4FFA016081A7014F5F92
S11301A05F4FFA0140814627F901408398012E5F91
S11301B03F4FAC014E5F5F4FFA016081A7014E5F74
S11301C05F4FFA0140814627F901408398012D5F72
S11301D03F4FAC014D5F5F4FFA016081A7014D5F56
S11301E05F4FFA0140814627F901408398012C5F53
S11301F03F4FAC014C5F5F4FFA016081A7014C5F38
S11302005F4FFA0140814627F901408398012B5F33
S11302103F4FAC014B5F5F4FFA016081A7014B5F19
S11302205F4FFA0140814627F901408398012A5F14
S11302303F4FAC014A5F5F4FFA016081A7014A5FFB
S11302405F4FFA0140814627F90140839801295FF5
S11302503F4FAC01495F5F4FFA016081A701495FDD
S11302605F4FFA0140814627F90140839801285FD6
S11302703F4FAC01485F5F4FFA016081A701485FBF
S11302805F4FFA0140814627F90140839801275FB7
S11302903F4FAC01475F5F4FFA016081A701475FA1
S11302A05F4FFA0140814627F90140839801265F98
S11302B03F4FAC01465F5F4FFA016081A701465F83
S11302C05F4FFA0140814627F90140839801255F79
S11302D03F4FAC01455F5F4FFA016081A701455F65
S11302E05F4FFA0140814627F90140839801245F5A
S11302F03F4FAC01445F5F4FFA016081A701445F47
S11303005F4FFA0140814627F90140839801235F3A
S11303103F4FAC01435F5F4FFA016081A701435F28
S11303205F4FFA0140814627F90140839801225F1B
S11303303F4FAC01425F5F4FFA016081A701425F0A
S11303405F4FFA0140814627F90140839801215FFC
S11303503F4F0F96FC014081C7010F96FC0180813D
S11303608427F9018083F0E1EF1AF108C8010E94A3
S11303704B00F8018081882F90E080509F4FFC0152
S11303808081F8018083C801019698012F5F3F4F57
S1130390F9012081222F30E020503F4FF9012081C4
S11303A0FC012083C801029698012E5F3F4FF9019A
S11303B02081222F30E020503F4FF9012081FC01A1
S11303C02083C801039698012D5F3F4FF9012081D6
S11303D0222F30E020503F4FF9012081FC0120837F
S11303E0C801049698012C5F3F4FF9012081222F08
S11303F030E020503F4FF9012081FC012083C801E7
S1130400059698012B5F3F4FF9012081222F30E0A0
S113041020503F4FF9012081FC012083C80106963A
S113042098012A5F3F4FF9012081222F30E02050AC
S11304303F4FF9012081FC012083C80107969801F0
S1130440295F3F4FF9012081222F30E020503F4F98
S1130450F9012081FC012083C80108969801285FD6
S11304603F4FF9012081222F30E020503F4FF90106
S11304702081FC012083C80109969801275F3F4F22
S1130480F9012081222F30E020503F4FF9012081D3
S1130490FC012083C8010A969801265F3F4FF901A9
S11304A02081222F30E020503F4FF9012081FC01B0
S11304B02083C8010B969801255F3F4FF9012081E5
S11304C0222F30E020503F4FF9012081FC0120838E
S11304D0C8010C969801245F3F4FF9012081222F17
S11304E030E020503F4FF9012081FC012083C801F6
S11304F00D969801235F3F4FF9012081222F30E0B0
S113050020503F4FF9012081FC012083C8010E9641
S11305109801225F3F4FF9012081222F30E02050C3
S11305203F4FF9012081FC012083C8010F969801F7
S1130530215F3F4FF9012081222F30E020503F4FAF
S1130540F9012081FC0120830F2EF9E0AF2EF02D5C
S11305505FC5F8019081F701808189278DA3C801C7
S11305600196FC012081C7010196FC01808182274C
S11305708EA3C8010296FC012081C7010296FC01EA
S1130580808182278FA3C8010396FC012081C701C3
S11305900396FC018081822788A7C8010496FC0188
S11305A02081C7010496FC018081822789A7C801A4
S11305B00596FC012081C7010596FC0180818227F4
S11305C08AA7C8010696FC012081C7010696FC0192
S11305D0808182278BA7C8010796FC012081C7016F
S11305E00796FC01808182278CA7C8010896FC012C
S11305F02081C7010896FC01808182278DA7C8014C
S11306000996FC012081C7010996FC01808182279B
S11306108EA7C8010A96FC012081C7010A96FC0135
S1130620808182278FA7C8010B96FC012081C70116
S11306300B96FC018081822788ABC8010C96FC01D3
S11306402081C7010C96FC018081822789ABC801F7
S11306500D96FC012081C7010D96FC018081822743
S11306608AABC8010E96FC012081C7010E96FC01DD
S1130670808182278BABC8010F96FC012081C701C2
S11306800F96FC01808182278CAB9DA18EA19827B7
S11306908FA1982788A5D92ED8268DA1282F2D255E
S11306A09DA18EA189278983898188234CF489811E
S11306B0882F90E0880F991F982F8BE1892702C01B
S11306C08981880F8227F8018083C80101962EA1B1
S11306D0422F4D253EA12FA123272A832A8122239D
S11306E04CF42A81222F30E0220F331F322F2BE1CA
S11306F0232702C02A81220F2427FC012083C8015A
S113070002962FA1422F4D253FA128A523272B83F5
S11307102B8122234CF42B81222F30E0220F331F14
S1130720322F2BE1232702C02B81220F2427FC0127
S11307302083C801039628A5422F4D2538A52DA155
S113074023272C832C8122234CF42C81222F30E06C
S1130750220F331F322F2BE1232702C02C81220FBB
S11307602427FC0120839DA18FA189278D838D815E
S113077088234CF48D81882F90E0880F991F982F3F
S11307808BE1892702C08D81880F8E838E81882317
S11307904CF48E81882F90E0880F991F982F8BE15D
S11307A0892702C08E81880FB82E9EA188A589272B
S11307B08F838F8188234CF48F81882F90E0880F5A
S11307C0991F982F8BE1892702C08F81880F888712
S11307D0888588234CF48885882F90E0880F991F9A
S11307E0982F8BE1892702C08885880FC82E8B2D0E
S11307F08C258987898588234CF48985882F90E006
S1130800880F991F982F8BE1892702C08985880F4B
S1130810D82EF80190818D2D8B258927F8018083AE
S1130820C801019698012F5F3F4FF90130812D2DAA
S11308302C252327FC012083C801029698012E5FF2
S11308403F4FF90130812D2D2B252327FC012083D7
S1130850C801039698012D5F3F4FF90130812D2D7A
S11308602C252327FC01208399A58AA598278BA5ED
S113087098278CA5D92ED826C801049629A5422FDD
S11308804D2539A52AA523272A872A8522234CF416
S11308902A85222F30E0220F331F322F2BE123270A
S11308A002C02A85220F2427FC012083C801059653
S11308B02AA5422F4D253AA52BA523272B872B8527
S11308C022234CF42B85222F30E0220F331F322FAA
S11308D02BE1232702C02B85220F2427FC01208330
S11308E0C80106962BA5422F4D253BA52CA52327F1
S11308F02C872C8522234CF42C85222F30E0220FC8
S1130900331F322F2BE1232702C02C85220F2427EB
S1130910FC012083C80107962CA5422F4D253CA538
S113092029A523272D872D8522234CF42D85222FBD
S113093030E0220F331F322F2BE1232702C02D85F5
S1130940220F2427FC01208399A58BA589278E8754
S11309508E8588234CF48E85882F90E0880F991F0C
S1130960982F8BE1892702C08E85880F8F878F850A
S113097088234CF48F85882F90E0880F991F982F37
S11309808BE1892702C08F85880FB82E9AA58CA584
S11309908927888B888988234CF48889882F90E05C
S11309A0880F991F982F8BE1892702C08889880FA7
S11309B0898B898988234CF48989882F90E0880F52
S11309C0991F982F8BE1892702C08989880FC82E27
S11309D08B2D8C258A8B8A8988234CF48A89882FCD
S11309E090E0880F991F982F8BE1892702C08A898C
S11309F0880FD82EC801049698012C5F3F4FF90147
S1130A0030812D2D2B252327FC012083C801059639
S1130A1098012B5F3F4FF90130812D2D2C25232781
S1130A20FC012083C801069698012A5F3F4FF90113
S1130A3030812D2D2B252327FC012083C801079607
S1130A409801295F3F4FF90130812D2D2C25232753
S1130A50FC0120839DA58EA598278FA5982788A99A
S1130A60D92ED826C80108962DA5422F4D253DA57F
S1130A702EA523272B8B2B8922234CF42B89222F61
S1130A8030E0220F331F322F2BE1232702C02B89A2
S1130A90220F2427FC012083C80109962EA5422F8A
S1130AA04D253EA52FA523272C8B2C8922234CF4DE
S1130AB02C89222F30E0220F331F322F2BE12327E2
S1130AC002C02C89220F2427FC012083C8010A9626
S1130AD02FA5422F4D253FA528A923272D8B2D89EE
S1130AE022234CF42D89222F30E0220F331F322F82
S1130AF02BE1232702C02D89220F2427FC01208308
S1130B00C8010B9628A9422F4D2538A92DA52327C6
S1130B102E8B2E8922234CF42E89222F30E0220F93
S1130B20331F322F2BE1232702C02E89220F2427C3
S1130B30FC0120839DA58FA589278F8B8F8988230E
S1130B404CF48F89882F90E0880F991F982F8BE1A0
S1130B50892702C08F89880F888F888D88234CF459
S1130B60888D882F90E0880F991F982F8BE1892713
S1130B7002C0888D880FB82E9EA588A98927898FE1
S1130B80898D88234CF4898D882F90E0880F991FD4
S1130B90982F8BE1892702C0898D880F8A8F8A8DCF
S1130BA088234CF48A8D882F90E0880F991F982F02
S1130BB08BE1892702C08A8D880FC82E8B2D8C2546
S1130BC08B8F8B8D88234CF48B8D882F90E0880F2E
S1130BD0991F982F8BE1892702C08B8D880FD82EFF
S1130BE0C80108969801285F3F4FF90130812D2DE7
S1130BF02B252327FC012083C80109969801275F30
S1130C003F4FF90130812D2D2C252327FC01208312
S1130C10C8010A969801265F3F4FF90130812D2DB6
S1130C202B252327FC012083C8010B969801255FFF
S1130C303F4FF90130812D2D2C252327FC012083E2
S1130C4099A98AA998278BA998278CA9D92ED8263F
S1130C50C8010C9629A9422F4D2539A92AA9232771
S1130C602C8F2C8D22234CF42C8D222F30E0220F3C
S1130C70331F322F2BE1232702C02C8D220F242770
S1130C80FC012083C8010D962AA9422F4D253AA9BB
S1130C902BA923272D8F2D8D22234CF42D8D222F2C
S1130CA030E0220F331F322F2BE1232702C02D8D7A
S1130CB0220F2427FC012083C8010E962BA9422F62
S1130CC04D253BA92CA923272E8F2E8D22234CF4AE
S1130CD02E8D222F30E0220F331F322F2BE12327BA
S1130CE002C02E8D220F2427FC012083C8010F96F9
S1130CF02CA9422F4D253CA929A923272F8F2F8DBD
S1130D0022234CF42F8D222F30E0220F331F322F59
S1130D102BE1232702C02F8D220F2427FC012083DF
S1130D2099A98BA9892788A388A188234CF488A131
S1130D30882F90E0880F991F982F8BE1892702C094
S1130D4088A1880F89A389A188234CF489A1882FBD
S1130D5090E0880F991F982F8BE1892702C089A101
S1130D60880FB82E9AA98CA989278AA38AA18823D7
S1130D704CF48AA1882F90E0880F991F982F8BE15B
S1130D80892702C08AA1880F8BA38BA188234CF4E6
S1130D908BA1882F90E0880F991F982F8BE18927CA
S1130DA002C08BA1880FC82E8B2D8C258CA38CA1FF
S1130DB088234CF48CA1882F90E0880F991F982FDA
S1130DC08BE1892702C08CA1880FD82EC8010C960C
S1130DD09801245F3F4FF90130812D2D2B252327C6
S1130DE0FC012083C8010D969801235F3F4FF90150
S1130DF030812D2D2C252327FC012083C8010E963C
S1130E009801225F3F4FF90130812D2D2B25232797
S1130E10FC012083C8010F969801215F3F4FF9011F
S1130E2030812D2D2C252327FC012083C8010E940D
S1130E304B00F8018081882F90E080509F4FFC0187
S1130E408081F8018083C801019698012F5F3F4F8C
S1130E50F9012081222F30E020503F4FF9012081F9
S1130E60FC012083C801029698012E5F3F4FF901CF
S1130E702081222F30E020503F4FF9012081FC01D6
S1130E802083C801039698012D5F3F4FF90120810B
S1130E90222F30E020503F4FF9012081FC012083B4
S1130EA0C801049698012C5F3F4FF9012081222F3D
S1130EB030E020503F4FF9012081FC012083C8011C
S1130EC0059698012B5F3F4FF9012081222F30E0D6
S1130ED020503F4FF9012081FC012083C801069670
S1130EE098012A5F3F4FF9012081222F30E02050E2
S1130EF03F4FF9012081FC012083C8010796980126
S1130F00295F3F4FF9012081222F30E020503F4FCD
S1130F10F9012081FC012083C80108969801285F0B
S1130F203F4FF9012081222F30E020503F4FF9013B
S1130F302081FC012083C80109969801275F3F4F57
S1130F40F9012081222F30E020503F4FF901208108
S1130F50FC012083C8010A969801265F3F4FF901DE
S1130F602081222F30E020503F4FF9012081FC01E5
S1130F702083C8010B969801255F3F4FF90120811A
S1130F80222F30E020503F4FF9012081FC012083C3
S1130F90C8010C969801245F3F4FF9012081222F4C
S1130FA030E020503F4FF9012081FC012083C8012B
S1130FB00D969801235F3F4FF9012081222F30E0E5
S1130FC020503F4FF9012081FC012083C8010E9677
S1130FD09801225F3F4FF9012081222F30E02050F9
S1130FE03F4FF9012081FC012083C8010F9698012D
S1130FF0215F3F4FF9012081222F30E020503F4FE5
S1131000F9012081FC012083F0E1EF1AF108AA9490
S1131010AA2009F09ECAF8019081F70180818927EE
S1131020F8018083C801019698012F5F3F4FF901B1
S1131030408197012F5F3F4FF90120812427FC0154
S11310402083C801029698012E5F3F4FF901408129
S113105097012E5F3F4FF90120812427FC01208353
S1131060C801039698012D5F3F4FF9014081970114
S11310702D5F3F4FF90120812427FC012083C80103
S1131080049698012C5F3F4FF901408197012C5F32
S11310903F4FF90120812427FC012083C8010596D4
S11310A098012B5F3F4FF901408197012B5F3F4F20
S11310B0F90120812427FC012083C80106969801A8
S11310C02A5F3F4FF901408197012A5F3F4FF901A1
S11310D020812427FC012083C80107969801295FF9
S11310E03F4FF90140819701295F3F4FF90120816A
S11310F02427FC012083C80108969801285F3F4FEC
S1131100F90140819701285F3F4FF901208124278D
S1131110FC012083C80109969801275F3F4FF9011C
S113112040819701275F3F4FF90120812427FC016B
S11311302083C8010A969801265F3F4FF901408138
S11311409701265F3F4FF90120812427FC0120836A
S1131150C8010B969801255F3F4FF9014081970123
S1131160255F3F4FF90120812427FC012083C8011A
S11311700C969801245F3F4FF90140819701245F49
S11311803F4FF90120812427FC012083C8010D96DB
S11311909801235F3F4FF90140819701235F3F4F3F
S11311A0F90120812427FC012083C8010E969801AF
S11311B0225F3F4FF90140819701225F3F4FF901C0
S11311C020812427FC012083C8010F969801215F08
S11311D03F4FF90140819701215F3F4FF901208181
S11311E02427FC0120830000E4960FB6F894DEBFA8
S11311F00FBECDBFDF91CF911F910F91FF90EF9064
S1131200DF90CF90BF90AF900895CF93DF93CDB789
S1131210DEB7982F992344F4882F90E0880F991F04
S1131220982F8BE1892701C0880FDF91CF91089512
S11312301F93CF93DF93CDB7DEB7FC0111819C01DF
S11312402F5F3F4FFC014581F90140839C012B5FD7
S11312503F4FFC014185F90140839C01275F3F4FCB
S1131260FC014585F90140839C01235F3F4FF9014F
S11312701083FC0112819C012E5F3F4FFC014285CB
S1131280F90140839C01265F3F4FF9011083FC0163
S113129016819C012A5F3F4FFC014685F90140837A
S11312A09C01225F3F4FF9011083FC0117859C01CB
S11312B0215F3F4FFC014385F90140839C01255F79
S11312C03F4FFC014781F90140839C01295F3F4F57
S11312D0FC014381F90140830396FC011083000063
S11312E0DF91CF911F910895CF92DF92EF92FF92F9
S11312F00F931F93CF93DF93CDB7DEB761970FB6EC
S1131300F894DEBF0FBECDBF7C018B0120910A0390
S1131310C7017C013FEFE31AF30AFC0180818227B5
S1131320F801808398012F5F3F4F40910B03C70161
S11313307C01FFEFEF1AFF0AFC0180818427F90189
S1131340808398012E5F3F4F40910C03C7017C01BD
S1131350FFEFEF1AFF0AFC0180818427F9018083E3
S113136098012D5F3F4F40910D03C7017C01FFEFB2
S1131370EF1AFF0AFC0180818427F9018083980118
S11313802C5F3F4F40910E03C7017C01FFEFEF1A22
S1131390FF0AFC0180818427F901808398012B5F77
S11313A03F4F40910F03C7017C01FFEFEF1AFF0A83
S11313B0FC0180818427F901808398012A5F3F4FD3
S11313C040911003C7017C01FFEFEF1AFF0AFC01F3
S11313D080818427F90180839801295F3F4F4091E0
S11313E01103C7017C01FFEFEF1AFF0AFC018081A2
S11313F08427F90180839801285F3F4F40911203AD
S1131400C7017C01FFEFEF1AFF0AFC0180818427EA
S1131410F90180839801275F3F4F40911303C7016F
S11314207C01FFEFEF1AFF0AFC0180818427F90198
S113143080839801265F3F4F40911403C7017C01CC
S1131440FFEFEF1AFF0AFC0180818427F9018083F2
S11314509801255F3F4F40911503C7017C01FFEFC1
S1131460EF1AFF0AFC0180818427F9018083980127
S1131470245F3F4F40911603C7017C01FFEFEF1A31
S1131480FF0AFC0180818427F90180839801235F8E
S11314903F4F40911703C7017C01FFEFEF1AFF0A8A
S11314A0FC0180818427F90180839801225F3F4FEA
S11314B040911803C7017C01FFEFEF1AFF0AFC01FA
S11314C080818427F90180839801215F3F4F4091F7
S11314D01903C7017C01FFEFEF1AFF0AFC018081A9
S11314E08427F9018083F8018081882F90E080505F
S11314F09E4FFC0180818A83C8010196FC01808192
S1131500882F90E080509E4FFC0180818B83C8011E
S11315100296FC018081882F90E080509E4FFC0150
S113152080818C83C8010396FC018081882F90E020
S113153080509E4FFC0180818D83C8010496FC017C
S11315408081882F90E080509E4FFC0180818E83A3
S1131550C8010596FC018081882F90E080509E4F41
S1131560FC0180818F83C8010696FC018081882F4D
S113157090E080509E4FFC0180818887C8010796C7
S1131580FC018081882F90E080509E4FFC01808177
S11315908987C8010896FC018081882F90E08050DB
S11315A09E4FFC0180818A87C8010996FC018081D5
S11315B0882F90E080509E4FFC0180818B87C8016A
S11315C00A96FC018081882F90E080509E4FFC0198
S11315D080818C87C8010B96FC018081882F90E064
S11315E080509E4FFC0180818D87C8010C96FC01C0
S11315F08081882F90E080509E4FFC0180818E87EF
S1131600C8010D96FC018081882F90E080509E4F88
S1131610FC0180818F87C8010E96FC018081882F90
S113162090E080509E4FFC018081888BC8010F960A
S1131630FC018081882F90E080509E4FFC018081C6
S1131640898BCE0102960E9418099A818B81982772
S11316508C8198278D81892789839A818B81892719
S11316600E940509982F8A81982789818927F80182
S113167080836801FFEFCF1ADF0A9B818C81892761
S11316800E940509982F8B81982789818927F60163
S113169080836801F2E0CF0ED11C9C818D81892763
S11316A00E940509982F8C81982789818927F60142
S11316B080836801F3E0CF0ED11C9D818A81892744
S11316C00E940509982F8D81982789818927F60121
S11316D080839E818F81982788859827898589278B
S11316E089836801F4E0CF0ED11C9E818F81892704
S11316F00E940509982F8E81982789818927F601F0
S113170080836801F5E0CF0ED11C9F8188858927ED
S11317100E940509982F8F81982789818927F601CE
S113172080836801F6E0CF0ED11C988589858927CE
S11317300E940509982F8885982789818927F601B1
S113174080836801F7E0CF0ED11C99858E818927AB
S11317500E940509982F8985982789818927F60190
S113176080839A858B8598278C8598278D858927F2
S113177089836801F8E0CF0ED11C9A858B8589276F
S11317800E940509982F8A85982789818927F6015F
S113179080836801F9E0CF0ED11C9B858C85892755
S11317A00E940509982F8B85982789818927F6013E
S11317B080836801FAE0CF0ED11C9C858D85892732
S11317C00E940509982F8C85982789818927F6011D
S11317D080836801FBE0CF0ED11C9D858A85892713
S11317E00E940509982F8D85982789818927F601FC
S11317F080839E858F85982788899827898989275A
S113180089836801FCE0CF0ED11C9E858F858927D2
S11318100E940509982F8E85982789818927F601CA
S113182080836801FDE0CF0ED11C9F8588898927BC
S11318300E940509982F8F85982789818927F601A9
S113184080836801FEE0CF0ED11C9889898989279D
S11318500E940509982F8889982789818927F6018C
S113186080836801FFE0CF0ED11C99898E8589277A
S11318700E940509982F8989982789818927F6016B
S11318808083C7017C01FFEFEF1AFF0AFC0180810E
S1131890F80190818927F8018083C7017C01FFEF5B
S11318A0EF1AFF0AFC014081C801019698012F5FDD
S11318B03F4FF90120812427FC012083C7017C01CB
S11318C0FFEFEF1AFF0AFC014081C801029698015C
S11318D02E5F3F4FF90120812427FC012083C7019B
S11318E07C01FFEFEF1AFF0AFC014081C801039657
S11318F098012D5F3F4FF90120812427FC012083AB
S1131900C7017C01FFEFEF1AFF0AFC014081C80107
S1131910049698012C5F3F4FF90120812427FC0194
S11319202083C7017C01FFEFEF1AFF0AFC0140810D
S1131930C801059698012B5F3F4FF90120812427A8
S1131940FC012083C7017C01FFEFEF1AFF0AFC01B1
S11319504081C801069698012A5F3F4FF901208112
S11319602427FC012083C7017C01FFEFEF1AFF0A43
S1131970FC014081C80107969801295F3F4FF90196
S113198020812427FC012083C7017C01FFEFEF1A8B
S1131990FF0AFC014081C80108969801285F3F4F67
S11319A0F90120812427FC012083C7017C01FFEF7A
S11319B0EF1AFF0AFC014081C80109969801275FCC
S11319C03F4FF90120812427FC012083C7017C01BA
S11319D0FFEFEF1AFF0AFC014081C8010A96980143
S11319E0265F3F4FF90120812427FC012083C70192
S11319F07C01FFEFEF1AFF0AFC014081C8010B963E
S1131A009801255F3F4FF90120812427FC012083A1
S1131A10C7017C01FFEFEF1AFF0AFC014081C801F6
S1131A200C969801245F3F4FF90120812427FC0183
S1131A302083C7017C01FFEFEF1AFF0AFC014081FC
S1131A40C8010D969801235F3F4FF9012081242797
S1131A50FC012083C7017C01FFEFEF1AFF0AFC01A0
S1131A604081C8010E969801225F3F4FF901208101
S1131A702427FC012083C7017C01FFEFEF1AFF0A32
S1131A80FC014081C8010F969801215F3F4FF90185
S1131A9020812427FC012083F8018081882F90E095
S1131AA080509E4FFC0180818A83C8010196FC010D
S1131AB08081882F90E080509E4FFC0180818B8331
S1131AC0C8010296FC018081882F90E080509E4FCF
S1131AD0FC0180818C83C8010396FC018081882FDE
S1131AE090E080509E4FFC0180818D83C801049654
S1131AF0FC018081882F90E080509E4FFC01808102
S1131B008E83C8010596FC018081882F90E0805067
S1131B109E4FFC0180818F83C8010696FC01808161
S1131B20882F90E080509E4FFC0180818887C801F7
S1131B300796FC018081882F90E080509E4FFC0125
S1131B4080818987C8010896FC018081882F90E0F4
S1131B5080509E4FFC0180818A87C8010996FC0150
S1131B608081882F90E080509E4FFC0180818B877C
S1131B70C8010A96FC018081882F90E080509E4F16
S1131B80FC0180818C87C8010B96FC018081882F21
S1131B9090E080509E4FFC0180818D87C8010C9697
S1131BA0FC018081882F90E080509E4FFC01808151
S1131BB08E87C8010D96FC018081882F90E08050AB
S1131BC09E4FFC0180818F87C8010E96FC018081A5
S1131BD0882F90E080509E4FFC018081888BC80143
S1131BE00F96FC018081882F90E080509E4FFC016D
S1131BF08081898BCE0102960E9418099A818B817B
S1131C0098278C8198278D81892789839A818B8154
S1131C1089270E940509982F8A8198278981892715
S1131C20F80180836801FFEFCF1ADF0A9B818C8162
S1131C3089270E940509982F8B81982789818927F4
S1131C40F60180836801F2E0CF0ED11C9C818D8166
S1131C5089270E940509982F8C81982789818927D3
S1131C60F60180836801F3E0CF0ED11C9D818A8147
S1131C7089270E940509982F8D81982789818927B2
S1131C80F60180839E818F8198278885982789858E
S1131C90892789836801F4E0CF0ED11C9E818F814E
S1131CA089270E940509982F8E8198278981892781
S1131CB0F60180836801F5E0CF0ED11C9F818885F1
S1131CC089270E940509982F8F8198278981892760
S1131CD0F60180836801F6E0CF0ED11C98858985D2
S1131CE089270E940509982F888598278981892743
S1131CF0F60180836801F7E0CF0ED11C99858E81AF
S1131D0089270E940509982F898598278981892721
S1131D10F60180839A858B8598278C8598278D85F5
S1131D20892789836801F8E0CF0ED11C9A858B85B9
S1131D3089270E940509982F8A85982789818927F0
S1131D40F60180836801F9E0CF0ED11C9B858C8558
S1131D5089270E940509982F8B85982789818927CF
S1131D60F60180836801FAE0CF0ED11C9C858D8535
S1131D7089270E940509982F8C85982789818927AE
S1131D80F60180836801FBE0CF0ED11C9D858A8516
S1131D9089270E940509982F8D859827898189278D
S1131DA0F60180839E858F8598278889982789895D
S1131DB0892789836801FCE0CF0ED11C9E858F851D
S1131DC089270E940509982F8E859827898189275C
S1131DD0F60180836801FDE0CF0ED11C9F858889C0
S1131DE089270E940509982F8F859827898189273B
S1131DF0F60180836801FEE0CF0ED11C98898989A1
S1131E0089270E940509982F88899827898189271D
S1131E10F60180836801FFE0CF0ED11C99898E857D
S1131E2089270E940509982F8989982789818927FC
S1131E30F6018083C7017C01FFEFEF1AFF0AFC0162
S1131E408081F80190818927F8018083C7017C0192
S1131E50FFEFEF1AFF0AFC014081C80101969801C7
S1131E602F5F3F4FF90120812427FC012083C70104
S1131E707C01FFEFEF1AFF0AFC014081C8010296C2
S1131E8098012E5F3F4FF90120812427FC01208314
S1131E90C7017C01FFEFEF1AFF0AFC014081C80172
S1131EA0039698012D5F3F4FF90120812427FC01FF
S1131EB02083C7017C01FFEFEF1AFF0AFC01408178
S1131EC0C801049698012C5F3F4FF9012081242713
S1131ED0FC012083C7017C01FFEFEF1AFF0AFC011C
S1131EE04081C801059698012B5F3F4FF90120817D
S1131EF02427FC012083C7017C01FFEFEF1AFF0AAE
S1131F00FC014081C801069698012A5F3F4FF90100
S1131F1020812427FC012083C7017C01FFEFEF1AF5
S1131F20FF0AFC014081C80107969801295F3F4FD1
S1131F30F90120812427FC012083C7017C01FFEFE4
S1131F40EF1AFF0AFC014081C80108969801285F36
S1131F503F4FF90120812427FC012083C7017C0124
S1131F60FFEFEF1AFF0AFC014081C80109969801AE
S1131F70275F3F4FF90120812427FC012083C701FB
S1131F807C01FFEFEF1AFF0AFC014081C8010A96A9
S1131F909801265F3F4FF90120812427FC0120830B
S1131FA0C7017C01FFEFEF1AFF0AFC014081C80161
S1131FB00B969801255F3F4FF90120812427FC01EE
S1131FC02083C7017C01FFEFEF1AFF0AFC01408167
S1131FD0C8010C969801245F3F4FF9012081242702
S1131FE0FC012083C7017C01FFEFEF1AFF0AFC010B
S1131FF04081C8010D969801235F3F4FF90120816C
S11320002427FC012083C7017C01FFEFEF1AFF0A9C
S1132010FC014081C8010E969801225F3F4FF901EF
S113202020812427FC012083C7017C01FFEFEF1AE4
S1132030FF0AFC014081C8010F969801215F3F4FC0
S1132040F90120812427FC012083F8018081882F55
S113205090E080509E4FFC0180818A83C8010196E4
S1132060FC018081882F90E080509E4FFC0180818C
S11320708B83C8010296FC018081882F90E08050F8
S11320809E4FFC0180818C83C8010396FC018081F2
S1132090882F90E080509E4FFC0180818D83C80181
S11320A00496FC018081882F90E080509E4FFC01B3
S11320B080818E83C8010596FC018081882F90E081
S11320C080509E4FFC0180818F83C8010696FC01DD
S11320D08081882F90E080509E4FFC01808188870A
S11320E0C8010796FC018081882F90E080509E4FA4
S11320F0FC0180818987C8010896FC018081882FB2
S113210090E080509E4FFC0180818A87C801099627
S1132110FC018081882F90E080509E4FFC018081DB
S11321208B87C8010A96FC018081882F90E080503B
S11321309E4FFC0180818C87C8010B96FC01808135
S1132140882F90E080509E4FFC0180818D87C801CC
S11321500C96FC018081882F90E080509E4FFC01FA
S113216080818E87C8010D96FC018081882F90E0C4
S113217080509E4FFC0180818F87C8010E96FC0120
S11321808081882F90E080509E4FFC018081888B55
S1132190C8010F96FC018081882F90E080509E4FEB
S11321A0FC018081898BCE0102960E9418099A81D4
S11321B08B8198278C8198278D81892789839A819F
S11321C08B8189270E940509982F8A819827898104
S11321D08927F80180836801FFEFCF1ADF0A9B810A
S11321E08C8189270E940509982F8B8198278981E2
S11321F08927F60180836801F2E0CF0ED11C9C810F
S11322008D8189270E940509982F8C8198278981BF
S11322108927F60180836801F3E0CF0ED11C9D81EC
S11322208A8189270E940509982F8D8198278981A1
S11322308927F60180839E818F8198278885982736
S11322408985892789836801F4E0CF0ED11C9E819A
S11322508F8189270E940509982F8E81982789816B
S11322608927F60180836801F5E0CF0ED11C9F8198
S1132270888589270E940509982F8F81982789814D
S11322808927F60180836801F6E0CF0ED11C98857A
S1132290898589270E940509982F8885982789812F
S11322A08927F60180836801F7E0CF0ED11C998558
S11322B08E8189270E940509982F8985982789810D
S11322C08927F60180839A858B8598278C859827A2
S11322D08D85892789836801F8E0CF0ED11C9A8502
S11322E08B8589270E940509982F8A8598278981DB
S11322F08927F60180836801F9E0CF0ED11C9B8504
S11323008C8589270E940509982F8B8598278981B8
S11323108927F60180836801FAE0CF0ED11C9C85E1
S11323208D8589270E940509982F8C859827898196
S11323308927F60180836801FBE0CF0ED11C9D85BF
S11323408A8589270E940509982F8D859827898178
S11323508927F60180839E858F8598278889982709
S11323608989892789836801FCE0CF0ED11C9E8569
S11323708F8589270E940509982F8E859827898142
S11323808927F60180836801FDE0CF0ED11C9F856B
S1132390888989270E940509982F8F859827898124
S11323A08927F60180836801FEE0CF0ED11C98894D
S11323B0898989270E940509982F88899827898106
S11323C08927F60180836801FFE0CF0ED11C99892B
S11323D08E8589270E940509982F898998278981E4
S11323E08927F6018083C7017C01FFEFEF1AFF0AFA
S11323F0FC018081F80190818927F8018083C7015D
S11324007C01FFEFEF1AFF0AFC014081C80101962D
S113241098012F5F3F4FF90120812427FC0120837D
S1132420C7017C01FFEFEF1AFF0AFC014081C801DC
S1132430029698012E5F3F4FF90120812427FC0169
S11324402083C7017C01FFEFEF1AFF0AFC014081E2
S1132450C801039698012D5F3F4FF901208124277D
S1132460FC012083C7017C01FFEFEF1AFF0AFC0186
S11324704081C801049698012C5F3F4FF9012081E7
S11324802427FC012083C7017C01FFEFEF1AFF0A18
S1132490FC014081C801059698012B5F3F4FF9016B
S11324A020812427FC012083C7017C01FFEFEF1A60
S11324B0FF0AFC014081C801069698012A5F3F4F3C
S11324C0F90120812427FC012083C7017C01FFEF4F
S11324D0EF1AFF0AFC014081C80107969801295FA1
S11324E03F4FF90120812427FC012083C7017C018F
S11324F0FFEFEF1AFF0AFC014081C801089698011A
S1132500285F3F4FF90120812427FC012083C70164
S11325107C01FFEFEF1AFF0AFC014081C801099614
S11325209801275F3F4FF90120812427FC01208374
S1132530C7017C01FFEFEF1AFF0AFC014081C801CB
S11325400A969801265F3F4FF90120812427FC0158
S11325502083C7017C01FFEFEF1AFF0AFC014081D1
S1132560C8010B969801255F3F4FF901208124276C
S1132570FC012083C7017C01FFEFEF1AFF0AFC0175
S11325804081C8010C969801245F3F4FF9012081D6
S11325902427FC012083C7017C01FFEFEF1AFF0A07
S11325A0FC014081C8010D969801235F3F4FF9015A
S11325B020812427FC012083C7017C01FFEFEF1A4F
S11325C0FF0AFC014081C8010E969801225F3F4F2B
S11325D0F90120812427FC012083C7017C01FFEF3E
S11325E0EF1AFF0AFC014081C8010F969801215F90
S11325F03F4FF90120812427FC012083F8018081C9
S1132600882F90E080509E4FFC0180818A83C8010E
S11326100196FC018081882F90E080509E4FFC0140
S113262080818B83C8010296FC018081882F90E011
S113263080509E4FFC0180818C83C8010396FC016D
S11326408081882F90E080509E4FFC0180818D8393
S1132650C8010496FC018081882F90E080509E4F31
S1132660FC0180818E83C8010596FC018081882F3E
S113267090E080509E4FFC0180818F83C8010696B4
S1132680FC018081882F90E080509E4FFC01808166
S11326908887C8010796FC018081882F90E08050CC
S11326A09E4FFC0180818987C8010896FC018081C6
S11326B0882F90E080509E4FFC0180818A87C8015A
S11326C00996FC018081882F90E080509E4FFC0188
S11326D080818B87C8010A96FC018081882F90E055
S11326E080509E4FFC0180818C87C8010B96FC01B1
S11326F08081882F90E080509E4FFC0180818D87DF
S1132700C8010C96FC018081882F90E080509E4F78
S1132710FC0180818E87C8010D96FC018081882F81
S113272090E080509E4FFC0180818F87C8010E96F7
S1132730FC018081882F90E080509E4FFC018081B5
S1132740888BC8010F96FC018081882F90E080500F
S11327509E4FFC018081898BCE0102960E9418094C
S11327609A818B8198278C8198278D8189278983E9
S11327709A818B8189270E940509982F8A8198273D
S113278089818927F80180836801FFEFCF1ADF0A66
S11327909B818C8189270E940509982F8B8198271A
S11327A089818927F60180836801F2E0CF0ED11C6C
S11327B09C818D8189270E940509982F8C819827F7
S11327C089818927F60180836801F3E0CF0ED11C4B
S11327D09D818A8189270E940509982F8D819827D8
S11327E089818927F60180839E818F819827888536
S11327F098278985892789836801F4E0CF0ED11C45
S11328009E818F8189270E940509982F8E819827A0
S113281089818927F60180836801F5E0CF0ED11CF8
S11328209F81888589270E940509982F8F81982781
S113283089818927F60180836801F6E0CF0ED11CD7
S11328409885898589270E940509982F8885982766
S113285089818927F60180836801F7E0CF0ED11CB6
S113286099858E8189270E940509982F8985982743
S113287089818927F60180839A858B8598278C85A1
S113288098278D85892789836801F8E0CF0ED11CAC
S11328909A858B8589270E940509982F8A85982710
S11328A089818927F60180836801F9E0CF0ED11C64
S11328B09B858C8589270E940509982F8B859827ED
S11328C089818927F60180836801FAE0CF0ED11C43
S11328D09C858D8589270E940509982F8C859827CA
S11328E089818927F60180836801FBE0CF0ED11C22
S11328F09D858A8589270E940509982F8D859827AB
S113290089818927F60180839E858F859827888908
S113291098278989892789836801FCE0CF0ED11C17
S11329209E858F8589270E940509982F8E85982773
S113293089818927F60180836801FDE0CF0ED11CCF
S11329409F85888989270E940509982F8F85982754
S113295089818927F60180836801FEE0CF0ED11CAE
S11329609889898989270E940509982F8889982739
S113297089818927F60180836801FFE0CF0ED11C8D
S113298099898E8589270E940509982F8989982716
S113299089818927F6018083C7017C01FFEFEF1A43
S11329A0FF0AFC018081F80190818927F801808366
S11329B0C7017C01FFEFEF1AFF0AFC014081C80147
S11329C0019698012F5F3F4FF90120812427FC01D4
S11329D02083C7017C01FFEFEF1AFF0AFC0140814D
S11329E0C801029698012E5F3F4FF90120812427E8
S11329F0FC012083C7017C01FFEFEF1AFF0AFC01F1
S1132A004081C801039698012D5F3F4FF901208151
S1132A102427FC012083C7017C01FFEFEF1AFF0A82
S1132A20FC014081C801049698012C5F3F4FF901D5
S1132A3020812427FC012083C7017C01FFEFEF1ACA
S1132A40FF0AFC014081C801059698012B5F3F4FA6
S1132A50F90120812427FC012083C7017C01FFEFB9
S1132A60EF1AFF0AFC014081C801069698012A5F0B
S1132A703F4FF90120812427FC012083C7017C01F9
S1132A80FFEFEF1AFF0AFC014081C8010796980185
S1132A90295F3F4FF90120812427FC012083C701CE
S1132AA07C01FFEFEF1AFF0AFC014081C801089680
S1132AB09801285F3F4FF90120812427FC012083DE
S1132AC0C7017C01FFEFEF1AFF0AFC014081C80136
S1132AD009969801275F3F4FF90120812427FC01C3
S1132AE02083C7017C01FFEFEF1AFF0AFC0140813C
S1132AF0C8010A969801265F3F4FF90120812427D7
S1132B00FC012083C7017C01FFEFEF1AFF0AFC01DF
S1132B104081C8010B969801255F3F4FF901208140
S1132B202427FC012083C7017C01FFEFEF1AFF0A71
S1132B30FC014081C8010C969801245F3F4FF901C4
S1132B4020812427FC012083C7017C01FFEFEF1AB9
S1132B50FF0AFC014081C8010D969801235F3F4F95
S1132B60F90120812427FC012083C7017C01FFEFA8
S1132B70EF1AFF0AFC014081C8010E969801225FFA
S1132B803F4FF90120812427FC012083C7017C01E8
S1132B90FFEFEF1AFF0AFC014081C8010F9698016C
S1132BA0215F3F4FF90120812427FC012083F80194
S1132BB08081882F90E080509E4FFC0180818A8321
S1132BC0C8010196FC018081882F90E080509E4FBF
S1132BD0FC0180818B83C8010296FC018081882FCF
S1132BE090E080509E4FFC0180818C83C801039645
S1132BF0FC018081882F90E080509E4FFC018081F1
S1132C008D83C8010496FC018081882F90E0805058
S1132C109E4FFC0180818E83C8010596FC01808152
S1132C20882F90E080509E4FFC0180818F83C801E3
S1132C300696FC018081882F90E080509E4FFC0115
S1132C4080818887C8010796FC018081882F90E0E5
S1132C5080509E4FFC0180818987C8010896FC0141
S1132C608081882F90E080509E4FFC0180818A876C
S1132C70C8010996FC018081882F90E080509E4F06
S1132C80FC0180818B87C8010A96FC018081882F12
S1132C9090E080509E4FFC0180818C87C8010B9688
S1132CA0FC018081882F90E080509E4FFC01808140
S1132CB08D87C8010C96FC018081882F90E080509C
S1132CC09E4FFC0180818E87C8010D96FC01808196
S1132CD0882F90E080509E4FFC0180818F87C8012F
S1132CE00E96FC018081882F90E080509E4FFC015D
S1132CF08081888BC8010F96FC018081882F90E029
S1132D0080509E4FFC018081898BCE0102960E94E7
S1132D1018099A818B8198278C8198278D8189271E
S1132D2089839A818B8189270E940509982F8A813A
S1132D30982789818927F80180836801FFEFCF1ADA
S1132D40DF0A9B818C8189270E940509982F8B813A
S1132D50982789818927F60180836801F2E0CF0EE4
S1132D60D11C9C818D8189270E940509982F8C8113
S1132D70982789818927F60180836801F3E0CF0EC3
S1132D80D11C9D818A8189270E940509982F8D81F4
S1132D90982789818927F60180839E818F819827CE
S1132DA0888598278985892789836801F4E0CF0E6F
S1132DB0D11C9E818F8189270E940509982F8E81BD
S1132DC0982789818927F60180836801F5E0CF0E71
S1132DD0D11C9F81888589270E940509982F8F819E
S1132DE0982789818927F60180836801F6E0CF0E50
S1132DF0D11C9885898589270E940509982F888583
S1132E00982789818927F60180836801F7E0CF0E2E
S1132E10D11C99858E8189270E940509982F89855F
S1132E20982789818927F60180839A858B8598273D
S1132E308C8598278D85892789836801F8E0CF0ED2
S1132E40D11C9A858B8589270E940509982F8A852C
S1132E50982789818927F60180836801F9E0CF0EDC
S1132E60D11C9B858C8589270E940509982F8B8509
S1132E70982789818927F60180836801FAE0CF0EBB
S1132E80D11C9C858D8589270E940509982F8C85E6
S1132E90982789818927F60180836801FBE0CF0E9A
S1132EA0D11C9D858A8589270E940509982F8D85C7
S1132EB0982789818927F60180839E858F859827A5
S1132EC0888998278989892789836801FCE0CF0E3E
S1132ED0D11C9E858F8589270E940509982F8E8590
S1132EE0982789818927F60180836801FDE0CF0E48
S1132EF0D11C9F85888989270E940509982F8F8571
S1132F00982789818927F60180836801FEE0CF0E26
S1132F10D11C9889898989270E940509982F888955
S1132F20982789818927F60180836801FFE0CF0E05
S1132F30D11C99898E8589270E940509982F898932
S1132F40982789818927F6018083C7017C01FFEFD7
S1132F50EF1AFF0AFC018081F80190818927F801AA
S1132F608083C7017C01FFEFEF1AFF0AFC01408157
S1132F70C801019698012F5F3F4FF9012081242752
S1132F80FC012083C7017C01FFEFEF1AFF0AFC015B
S1132F904081C801029698012E5F3F4FF9012081BC
S1132FA02427FC012083C7017C01FFEFEF1AFF0AED
S1132FB0FC014081C801039698012D5F3F4FF90140
S1132FC020812427FC012083C7017C01FFEFEF1A35
S1132FD0FF0AFC014081C801049698012C5F3F4F11
S1132FE0F90120812427FC012083C7017C01FFEF24
S1132FF0EF1AFF0AFC014081C801059698012B5F76
S11330003F4FF90120812427FC012083C7017C0163
S1133010FFEFEF1AFF0AFC014081C80106969801F0
S11330202A5F3F4FF90120812427FC012083C70137
S11330307C01FFEFEF1AFF0AFC014081C8010796EB
S11330409801295F3F4FF90120812427FC01208347
S1133050C7017C01FFEFEF1AFF0AFC014081C801A0
S113306008969801285F3F4FF90120812427FC012D
S11330702083C7017C01FFEFEF1AFF0AFC014081A6
S1133080C80109969801275F3F4FF9012081242741
S1133090FC012083C7017C01FFEFEF1AFF0AFC014A
S11330A04081C8010A969801265F3F4FF9012081AB
S11330B02427FC012083C7017C01FFEFEF1AFF0ADC
S11330C0FC014081C8010B969801255F3F4FF9012F
S11330D020812427FC012083C7017C01FFEFEF1A24
S11330E0FF0AFC014081C8010C969801245F3F4F00
S11330F0F90120812427FC012083C7017C01FFEF13
S1133100EF1AFF0AFC014081C8010D969801235F64
S11331103F4FF90120812427FC012083C7017C0152
S1133120FFEFEF1AFF0AFC014081C8010E969801D7
S1133130225F3F4FF90120812427FC012083C7012E
S11331407C01FFEFEF1AFF0AFC014081C8010F96D2
S11331509801215F3F4FF90120812427FC0120833E
S1133160F8018081882F90E080509E4FFC0180817F
S11331708A83C8010196FC018081882F90E08050E9
S11331809E4FFC0180818B83C8010296FC018081E3
S1133190882F90E080509E4FFC0180818C83C80171
S11331A00396FC018081882F90E080509E4FFC01A3
S11331B080818D83C8010496FC018081882F90E072
S11331C080509E4FFC0180818E83C8010596FC01CE
S11331D08081882F90E080509E4FFC0180818F83F6
S11331E0C8010696FC018081882F90E080509E4F94
S11331F0FC0180818887C8010796FC018081882FA3
S113320090E080509E4FFC0180818987C801089618
S1133210FC018081882F90E080509E4FFC018081CA
S11332208A87C8010996FC018081882F90E080502C
S11332309E4FFC0180818B87C8010A96FC01808126
S1133240882F90E080509E4FFC0180818C87C801BC
S11332500B96FC018081882F90E080509E4FFC01EA
S113326080818D87C8010C96FC018081882F90E0B5
S113327080509E4FFC0180818E87C8010D96FC0111
S11332808081882F90E080509E4FFC0180818F8741
S1133290C8010E96FC018081882F90E080509E4FDB
S11332A0FC018081888BC8010F96FC018081882FE6
S11332B090E080509E4FFC018081898BCE01029664
S11332C00E9418099A818B8198278C8198278D8177
S11332D0892789839A818B8189270E940509982FE0
S11332E08A81982789818927F80180836801FFEF03
S11332F0CF1ADF0A9B818C8189270E940509982FA8
S11333008B81982789818927F60180836801F2E0FF
S1133310CF0ED11C9C818D8189270E940509982F8D
S11333208C81982789818927F60180836801F3E0DD
S1133330CF0ED11C9D818A8189270E940509982F6F
S11333408D81982789818927F60180839E818F81C9
S11333509827888598278985892789836801F4E0D7
S1133360CF0ED11C9E818F8189270E940509982F39
S11333708E81982789818927F60180836801F5E089
S1133380CF0ED11C9F81888589270E940509982F1B
S11333908F81982789818927F60180836801F6E067
S11333A0CF0ED11C9885898589270E940509982FFD
S11333B08885982789818927F60180836801F7E049
S11333C0CF0ED11C99858E8189270E940509982FDB
S11333D08985982789818927F60180839A858B8539
S11333E098278C8598278D85892789836801F8E03B
S11333F0CF0ED11C9A858B8589270E940509982FA9
S11334008A85982789818927F60180836801F9E0F4
S1133410CF0ED11C9B858C8589270E940509982F86
S11334208B85982789818927F60180836801FAE0D2
S1133430CF0ED11C9C858D8589270E940509982F64
S11334408C85982789818927F60180836801FBE0B0
S1133450CF0ED11C9D858A8589270E940509982F46
S11334608D85982789818927F60180839E858F859C
S11334709827888998278989892789836801FCE0A6
S1133480CF0ED11C9E858F8589270E940509982F10
S11334908E85982789818927F60180836801FDE05C
S11334A0CF0ED11C9F85888989270E940509982FF2
S11334B08F85982789818927F60180836801FEE03A
S11334C0CF0ED11C9889898989270E940509982FD4
S11334D08889982789818927F60180836801FFE01C
S11334E0CF0ED11C99898E8589270E940509982FB2
S11334F08989982789818927F6018083C7017C01FE
S1133500FFEFEF1AFF0AFC018081F80190818927FF
S1133510F8018083C7017C01FFEFEF1AFF0AFC0169
S11335204081C801019698012F5F3F4FF901208126
S11335302427FC012083C7017C01FFEFEF1AFF0A57
S1133540FC014081C801029698012E5F3F4FF901AA
S113355020812427FC012083C7017C01FFEFEF1A9F
S1133560FF0AFC014081C801039698012D5F3F4F7B
S1133570F90120812427FC012083C7017C01FFEF8E
S1133580EF1AFF0AFC014081C801049698012C5FE0
S11335903F4FF90120812427FC012083C7017C01CE
S11335A0FFEFEF1AFF0AFC014081C801059698015C
S11335B02B5F3F4FF90120812427FC012083C701A1
S11335C07C01FFEFEF1AFF0AFC014081C801069657
S11335D098012A5F3F4FF90120812427FC012083B1
S11335E0C7017C01FFEFEF1AFF0AFC014081C8010B
S11335F007969801295F3F4FF90120812427FC0198
S11336002083C7017C01FFEFEF1AFF0AFC01408110
S1133610C80108969801285F3F4FF90120812427AB
S1133620FC012083C7017C01FFEFEF1AFF0AFC01B4
S11336304081C80109969801275F3F4FF901208115
S11336402427FC012083C7017C01FFEFEF1AFF0A46
S1133650FC014081C8010A969801265F3F4FF90199
S113366020812427FC012083C7017C01FFEFEF1A8E
S1133670FF0AFC014081C8010B969801255F3F4F6A
S1133680F90120812427FC012083C7017C01FFEF7D
S1133690EF1AFF0AFC014081C8010C969801245FCF
S11336A03F4FF90120812427FC012083C7017C01BD
S11336B0FFEFEF1AFF0AFC014081C8010D96980143
S11336C0235F3F4FF90120812427FC012083C70198
S11336D07C01FFEFEF1AFF0AFC014081C8010E963E
S11336E09801225F3F4FF90120812427FC012083A8
S11336F0C7017C01FFEFEF1AFF0AFC014081C801FA
S11337000F969801215F3F4FF90120812427FC0186
S11337102083F8018081882F90E080509E4FFC0127
S113372080818A83C8010196FC018081882F90E002
S113373080509E4FFC0180818B83C8010296FC015E
S11337408081882F90E080509E4FFC0180818C8383
S1133750C8010396FC018081882F90E080509E4F21
S1133760FC0180818D83C8010496FC018081882F2F
S113377090E080509E4FFC0180818E83C8010596A5
S1133780FC018081882F90E080509E4FFC01808155
S11337908F83C8010696FC018081882F90E08050B9
S11337A09E4FFC0180818887C8010796FC018081B7
S11337B0882F90E080509E4FFC0180818987C8014A
S11337C00896FC018081882F90E080509E4FFC0178
S11337D080818A87C8010996FC018081882F90E046
S11337E080509E4FFC0180818B87C8010A96FC01A2
S11337F08081882F90E080509E4FFC0180818C87CF
S1133800C8010B96FC018081882F90E080509E4F68
S1133810FC0180818D87C8010C96FC018081882F72
S113382090E080509E4FFC0180818E87C8010D96E8
S1133830FC018081882F90E080509E4FFC018081A4
S11338408F87C8010E96FC018081882F90E08050FC
S11338509E4FFC018081888BC8010F96FC018081FA
S1133860882F90E080509E4FFC018081898BCE018F
S113387002960E9418099A818B8198278C81982737
S11338808D81892789839A818B8189270E940509E3
S1133890982F8A81982789818927F8018083680174
S11338A0FFEFCF1ADF0A9B818C8189270E940509CB
S11338B0982F8B81982789818927F6018083680155
S11338C0F2E0CF0ED11C9C818D8189270E940509CD
S11338D0982F8C81982789818927F6018083680134
S11338E0F3E0CF0ED11C9D818A8189270E940509AE
S11338F0982F8D81982789818927F60180839E815D
S11339008F819827888598278985892789836801E5
S1133910F4E0CF0ED11C9E818F8189270E94050976
S1133920982F8E81982789818927F60180836801E1
S1133930F5E0CF0ED11C9F81888589270E94050957
S1133940982F8F81982789818927F60180836801C0
S1133950F6E0CF0ED11C9885898589270E94050938
S1133960982F8885982789818927F60180836801A3
S1133970F7E0CF0ED11C99858E8189270E94050915
S1133980982F8985982789818927F60180839A85CC
S11339908B8598278C8598278D858927898368014D
S11339A0F8E0CF0ED11C9A858B8589270E940509E2
S11339B0982F8A85982789818927F6018083680151
S11339C0F9E0CF0ED11C9B858C8589270E940509BF
S11339D0982F8B85982789818927F6018083680130
S11339E0FAE0CF0ED11C9C858D8589270E9405099C
S11339F0982F8C85982789818927F601808368010F
S1133A00FBE0CF0ED11C9D858A8589270E9405097C
S1133A10982F8D85982789818927F60180839E8533
S1133A208F859827888998278989892789836801B8
S1133A30FCE0CF0ED11C9E858F8589270E94050945
S1133A40982F8E85982789818927F60180836801BC
S1133A50FDE0CF0ED11C9F85888989270E94050926
S1133A60982F8F85982789818927F601808368019B
S1133A70FEE0CF0ED11C9889898989270E94050907
S1133A80982F8889982789818927F601808368017E
S1133A90FFE0CF0ED11C99898E8589270E940509E4
S1133AA0982F8989982789818927F6018083C701FE
S1133AB07C01FFEFEF1AFF0AFC018081F80190817D
S1133AC08927F8018083C7017C01FFEFEF1AFF0A01
S1133AD0FC014081C801019698012F5F3F4FF90115
S1133AE020812427FC012083C7017C01FFEFEF1A0A
S1133AF0FF0AFC014081C801029698012E5F3F4FE6
S1133B00F90120812427FC012083C7017C01FFEFF8
S1133B10EF1AFF0AFC014081C801039698012D5F4A
S1133B203F4FF90120812427FC012083C7017C0138
S1133B30FFEFEF1AFF0AFC014081C80104969801C7
S1133B402C5F3F4FF90120812427FC012083C7010A
S1133B507C01FFEFEF1AFF0AFC014081C8010596C2
S1133B6098012B5F3F4FF90120812427FC0120831A
S1133B70C7017C01FFEFEF1AFF0AFC014081C80175
S1133B80069698012A5F3F4FF90120812427FC0102
S1133B902083C7017C01FFEFEF1AFF0AFC0140817B
S1133BA0C80107969801295F3F4FF9012081242716
S1133BB0FC012083C7017C01FFEFEF1AFF0AFC011F
S1133BC04081C80108969801285F3F4FF901208180
S1133BD02427FC012083C7017C01FFEFEF1AFF0AB1
S1133BE0FC014081C80109969801275F3F4FF90104
S1133BF020812427FC012083C7017C01FFEFEF1AF9
S1133C00FF0AFC014081C8010A969801265F3F4FD4
S1133C10F90120812427FC012083C7017C01FFEFE7
S1133C20EF1AFF0AFC014081C8010B969801255F39
S1133C303F4FF90120812427FC012083C7017C0127
S1133C40FFEFEF1AFF0AFC014081C8010C969801AE
S1133C50245F3F4FF90120812427FC012083C70101
S1133C607C01FFEFEF1AFF0AFC014081C8010D96A9
S1133C709801235F3F4FF90120812427FC01208311
S1133C80C7017C01FFEFEF1AFF0AFC014081C80164
S1133C900E969801225F3F4FF90120812427FC01F1
S1133CA02083C7017C01FFEFEF1AFF0AFC0140816A
S1133CB0C8010F969801215F3F4FF9012081242705
S1133CC0FC012083F8018081882F90E080509E4F72
S1133CD0FC0180818A83C8010196FC018081882FC0
S1133CE090E080509E4FFC0180818B83C801029636
S1133CF0FC018081882F90E080509E4FFC018081E0
S1133D008C83C8010396FC018081882F90E0805049
S1133D109E4FFC0180818D83C8010496FC01808143
S1133D20882F90E080509E4FFC0180818E83C801D3
S1133D300596FC018081882F90E080509E4FFC0105
S1133D4080818F83C8010696FC018081882F90E0D2
S1133D5080509E4FFC0180818887C8010796FC0132
S1133D608081882F90E080509E4FFC01808189875C
S1133D70C8010896FC018081882F90E080509E4FF6
S1133D80FC0180818A87C8010996FC018081882F03
S1133D9090E080509E4FFC0180818B87C8010A9679
S1133DA0FC018081882F90E080509E4FFC0180812F
S1133DB08C87C8010B96FC018081882F90E080508D
S1133DC09E4FFC0180818D87C8010C96FC01808187
S1133DD0882F90E080509E4FFC0180818E87C8011F
S1133DE00D96FC018081882F90E080509E4FFC014D
S1133DF080818F87C8010E96FC018081882F90E016
S1133E0080509E4FFC018081888BC8010F96FC0175
S1133E108081882F90E080509E4FFC018081898BA7
S1133E20CE0102960E9418099A818B8198278C8171
S1133E3098278D81892789839A818B8189270E947C
S1133E400509982F8A81982789818927F801808319
S1133E506801FFEFCF1ADF0A9B818C8189270E94BA
S1133E600509982F8B81982789818927F6018083FA
S1133E706801F2E0CF0ED11C9C818D8189270E94BC
S1133E800509982F8C81982789818927F6018083D9
S1133E906801F3E0CF0ED11C9D818A8189270E949D
S1133EA00509982F8D81982789818927F6018083B8
S1133EB09E818F819827888598278985892789837A
S1133EC06801F4E0CF0ED11C9E818F8189270E9466
S1133ED00509982F8E81982789818927F601808387
S1133EE06801F5E0CF0ED11C9F81888589270E9447
S1133EF00509982F8F81982789818927F601808366
S1133F006801F6E0CF0ED11C9885898589270E9427
S1133F100509982F8885982789818927F601808348
S1133F206801F7E0CF0ED11C99858E8189270E9404
S1133F300509982F8985982789818927F601808327
S1133F409A858B8598278C8598278D8589278983E1
S1133F506801F8E0CF0ED11C9A858B8589270E94D1
S1133F600509982F8A85982789818927F6018083F6
S1133F706801F9E0CF0ED11C9B858C8589270E94AE
S1133F800509982F8B85982789818927F6018083D5
S1133F906801FAE0CF0ED11C9C858D8589270E948B
S1133FA00509982F8C85982789818927F6018083B4
S1133FB06801FBE0CF0ED11C9D858A8589270E946C
S1133FC00509982F8D85982789818927F601808393
S1133FD09E858F8598278889982789898927898349
S1133FE06801FCE0CF0ED11C9E858F8589270E9435
S1133FF00509982F8E85982789818927F601808362
S11340006801FDE0CF0ED11C9F85888989270E9415
S11340100509982F8F85982789818927F601808340
S11340206801FEE0CF0ED11C9889898989270E94F6
S11340300509982F8889982789818927F601808323
S11340406801FFE0CF0ED11C99898E8589270E94D3
S11340500509982F8989982789818927F601808302
S1134060C7017C01FFEFEF1AFF0AFC018081F80110
S113407090818927F8018083C7017C01FFEFEF1A43
S1134080FF0AFC014081C801019698012F5F3F4F50
S1134090F90120812427FC012083C7017C01FFEF63
S11340A0EF1AFF0AFC014081C801029698012E5FB5
S11340B03F4FF90120812427FC012083C7017C01A3
S11340C0FFEFEF1AFF0AFC014081C8010396980133
S11340D02D5F3F4FF90120812427FC012083C70174
S11340E07C01FFEFEF1AFF0AFC014081C80104962E
S11340F098012C5F3F4FF90120812427FC01208384
S1134100C7017C01FFEFEF1AFF0AFC014081C801DF
S1134110059698012B5F3F4FF90120812427FC016C
S11341202083C7017C01FFEFEF1AFF0AFC014081E5
S1134130C801069698012A5F3F4FF9012081242780
S1134140FC012083C7017C01FFEFEF1AFF0AFC0189
S11341504081C80107969801295F3F4FF9012081EA
S11341602427FC012083C7017C01FFEFEF1AFF0A1B
S1134170FC014081C80108969801285F3F4FF9016E
S113418020812427FC012083C7017C01FFEFEF1A63
S1134190FF0AFC014081C80109969801275F3F4F3F
S11341A0F90120812427FC012083C7017C01FFEF52
S11341B0EF1AFF0AFC014081C8010A969801265FA4
S11341C03F4FF90120812427FC012083C7017C0192
S11341D0FFEFEF1AFF0AFC014081C8010B9698011A
S11341E0255F3F4FF90120812427FC012083C7016B
S11341F07C01FFEFEF1AFF0AFC014081C8010C9615
S11342009801245F3F4FF90120812427FC0120837A
S1134210C7017C01FFEFEF1AFF0AFC014081C801CE
S11342200D969801235F3F4FF90120812427FC015B
S11342302083C7017C01FFEFEF1AFF0AFC014081D4
S1134240C8010E969801225F3F4FF901208124276F
S1134250FC012083C7017C01FFEFEF1AFF0AFC0178
S11342604081C8010F969801215F3F4FF9012081D9
S11342702427FC012083F8018081882F90E080505E
S11342809E4FFC0180818A83C8010196FC018081D4
S1134290882F90E080509E4FFC0180818B83C80161
S11342A00296FC018081882F90E080509E4FFC0193
S11342B080818C83C8010396FC018081882F90E063
S11342C080509E4FFC0180818D83C8010496FC01BF
S11342D08081882F90E080509E4FFC0180818E83E6
S11342E0C8010596FC018081882F90E080509E4F84
S11342F0FC0180818F83C8010696FC018081882F90
S113430090E080509E4FFC0180818887C801079609
S1134310FC018081882F90E080509E4FFC018081B9
S11343208987C8010896FC018081882F90E080501D
S11343309E4FFC0180818A87C8010996FC01808117
S1134340882F90E080509E4FFC0180818B87C801AC
S11343500A96FC018081882F90E080509E4FFC01DA
S113436080818C87C8010B96FC018081882F90E0A6
S113437080509E4FFC0180818D87C8010C96FC0102
S11343808081882F90E080509E4FFC0180818E8731
S1134390C8010D96FC018081882F90E080509E4FCB
S11343A0FC0180818F87C8010E96FC018081882FD3
S11343B090E080509E4FFC018081888BC8010F964D
S11343C0FC018081882F90E080509E4FFC01808109
S11343D0898BCE0102960E9418099A818B819827B5
S11343E08C8198278D81892789839A818B8189275C
S11343F00E940509982F8A81982789818927F801C5
S113440080836801FFEFCF1ADF0A9B818C818927A3
S11344100E940509982F8B81982789818927F601A5
S113442080836801F2E0CF0ED11C9C818D818927A5
S11344300E940509982F8C81982789818927F60184
S113444080836801F3E0CF0ED11C9D818A81892786
S11344500E940509982F8D81982789818927F60163
S113446080839E818F8198278885982789858927CD
S113447089836801F4E0CF0ED11C9E818F81892746
S11344800E940509982F8E81982789818927F60132
S113449080836801F5E0CF0ED11C9F818885892730
S11344A00E940509982F8F81982789818927F60111
S11344B080836801F6E0CF0ED11C98858985892711
S11344C00E940509982F8885982789818927F601F4
S11344D080836801F7E0CF0ED11C99858E818927EE
S11344E00E940509982F8985982789818927F601D3
S11344F080839A858B8598278C8598278D85892735
S113450089836801F8E0CF0ED11C9A858B858927B1
S11345100E940509982F8A85982789818927F601A1
S113452080836801F9E0CF0ED11C9B858C85892797
S11345300E940509982F8B85982789818927F60180
S113454080836801FAE0CF0ED11C9C858D85892774
S11345500E940509982F8C85982789818927F6015F
S113456080836801FBE0CF0ED11C9D858A85892755
S11345700E940509982F8D85982789818927F6013E
S113458080839E858F85982788899827898989279C
S113459089836801FCE0CF0ED11C9E858F85892715
S11345A00E940509982F8E85982789818927F6010D
S11345B080836801FDE0CF0ED11C9F8588898927FF
S11345C00E940509982F8F85982789818927F601EC
S11345D080836801FEE0CF0ED11C988989898927E0
S11345E00E940509982F8889982789818927F601CF
S11345F080836801FFE0CF0ED11C99898E858927BD
S11346000E940509982F8989982789818927F601AD
S11346108083C7017C01FFEFEF1AFF0AFC01808150
S1134620F80190818927F8018083C7017C01FFEF9D
S1134630EF1AFF0AFC014081C801019698012F5F1F
S11346403F4FF90120812427FC012083C7017C010D
S1134650FFEFEF1AFF0AFC014081C801029698019E
S11346602E5F3F4FF90120812427FC012083C701DD
S11346707C01FFEFEF1AFF0AFC014081C801039699
S113468098012D5F3F4FF90120812427FC012083ED
S1134690C7017C01FFEFEF1AFF0AFC014081C8014A
S11346A0049698012C5F3F4FF90120812427FC01D7
S11346B02083C7017C01FFEFEF1AFF0AFC01408150
S11346C0C801059698012B5F3F4FF90120812427EB
S11346D0FC012083C7017C01FFEFEF1AFF0AFC01F4
S11346E04081C801069698012A5F3F4FF901208155
S11346F02427FC012083C7017C01FFEFEF1AFF0A86
S1134700FC014081C80107969801295F3F4FF901D8
S113471020812427FC012083C7017C01FFEFEF1ACD
S1134720FF0AFC014081C80108969801285F3F4FA9
S1134730F90120812427FC012083C7017C01FFEFBC
S1134740EF1AFF0AFC014081C80109969801275F0E
S11347503F4FF90120812427FC012083C7017C01FC
S1134760FFEFEF1AFF0AFC014081C8010A96980185
S1134770265F3F4FF90120812427FC012083C701D4
S11347807C01FFEFEF1AFF0AFC014081C8010B9680
S11347909801255F3F4FF90120812427FC012083E4
S11347A0C7017C01FFEFEF1AFF0AFC014081C80139
S11347B00C969801245F3F4FF90120812427FC01C6
S11347C02083C7017C01FFEFEF1AFF0AFC0140813F
S11347D0C8010D969801235F3F4FF90120812427DA
S11347E0FC012083C7017C01FFEFEF1AFF0AFC01E3
S11347F04081C8010E969801225F3F4FF901208144
S11348002427FC012083C7017C01FFEFEF1AFF0A74
S1134810FC014081C8010F969801215F3F4FF901C7
S113482020812427FC012083F8018081882F90E0D7
S113483080509E4FFC018081F8018083C80101965D
S113484098012F5F3F4FF9012081222F30E0205043
S11348503E4FF9012081FC012083C8010296980192
S11348602E5F3F4FF9012081222F30E020503E4F30
S1134870F9012081FC012083C801039698012D5F72
S11348803F4FF9012081222F30E020503E4FF901A3
S11348902081FC012083C801049698012C5F3F4FBE
S11348A0F9012081222F30E020503E4FF901208170
S11348B0FC012083C801059698012B5F3F4FF90145
S11348C02081222F30E020503E4FF9012081FC014D
S11348D02083C801069698012A5F3F4FF901208181
S11348E0222F30E020503E4FF9012081FC0120832B
S11348F0C80107969801295F3F4FF9012081222FB3
S113490030E020503E4FF9012081FC012083C80192
S113491008969801285F3F4FF9012081222F30E04B
S113492020503E4FF9012081FC012083C8010996E3
S11349309801275F3F4FF9012081222F30E020505A
S11349403E4FF9012081FC012083C8010A96980199
S1134950265F3F4FF9012081222F30E020503E4F47
S1134960F9012081FC012083C8010B969801255F81
S11349703F4FF9012081222F30E020503E4FF901B2
S11349802081FC012083C8010C969801245F3F4FCD
S1134990F9012081222F30E020503E4FF90120817F
S11349A0FC012083C8010D969801235F3F4FF90154
S11349B02081222F30E020503E4FF9012081FC015C
S11349C02083C8010E969801225F3F4FF901208190
S11349D0222F30E020503E4FF9012081FC0120833A
S11349E0C8010F969801215F3F4FF9012081222FC2
S11349F030E020503E4FF9012081FC012083C801A2
S1134A000E941809C7017C01FFEFEF1AFF0AFC019D
S1134A108081F80190818927F8018083C7017C0196
S1134A20FFEFEF1AFF0AFC014081C80101969801CB
S1134A302F5F3F4FF90120812427FC012083C70108
S1134A407C01FFEFEF1AFF0AFC014081C8010296C6
S1134A5098012E5F3F4FF90120812427FC01208318
S1134A60C7017C01FFEFEF1AFF0AFC014081C80176
S1134A70039698012D5F3F4FF90120812427FC0103
S1134A802083C7017C01FFEFEF1AFF0AFC0140817C
S1134A90C801049698012C5F3F4FF9012081242717
S1134AA0FC012083C7017C01FFEFEF1AFF0AFC0120
S1134AB04081C801059698012B5F3F4FF901208181
S1134AC02427FC012083C7017C01FFEFEF1AFF0AB2
S1134AD0FC014081C801069698012A5F3F4FF90105
S1134AE020812427FC012083C7017C01FFEFEF1AFA
S1134AF0FF0AFC014081C80107969801295F3F4FD6
S1134B00F90120812427FC012083C7017C01FFEFE8
S1134B10EF1AFF0AFC014081C80108969801285F3A
S1134B203F4FF90120812427FC012083C7017C0128
S1134B30FFEFEF1AFF0AFC014081C80109969801B2
S1134B40275F3F4FF90120812427FC012083C701FF
S1134B507C01FFEFEF1AFF0AFC014081C8010A96AD
S1134B609801265F3F4FF90120812427FC0120830F
S1134B70C7017C01FFEFEF1AFF0AFC014081C80165
S1134B800B969801255F3F4FF90120812427FC01F2
S1134B902083C7017C01FFEFEF1AFF0AFC0140816B
S1134BA0C8010C969801245F3F4FF9012081242706
S1134BB0FC012083C7017C01FFEFEF1AFF0AFC010F
S1134BC04081C8010D969801235F3F4FF901208170
S1134BD02427FC012083C7017C01FFEFEF1AFF0AA1
S1134BE0FC014081C8010E969801225F3F4FF901F4
S1134BF020812427FC012083C7017C01FFEFEF1AE9
S1134C00FF0AFC014081C8010F969801215F3F4FC4
S1134C10F90120812427FC012083000061960FB64E
S1134C20F894DEBF0FBECDBFDF91CF911F910F91DE
S1134C30FF90EF90DF90CF9008959F92AF92BF9234
S1134C40CF92DF92EF92FF920F931F93CF93DF9354
S1134C50CDB7DEB79C01C901019640912A03F90141
S1134C6040839C01C901019640912B03F9014083C3
S1134C709C01C901019640912C03F90140839C01D8
S1134C80C901019640912D03F90140839C01C9019A
S1134C90019640912E03F90140839C01C9010196BC
S1134CA040912F03F90140839C01C9010196409171
S1134CB03003F90140839C01C901019640913103FD
S1134CC0F90140839C01C901019640913203F90125
S1134CD040839C01C901019640913303F90140834B
S1134CE09C01C901019640913403F90140839C0160
S1134CF0C901019640913503F90140839C01C90122
S1134D00019640913603F90140839C01C901019643
S1134D1040913703F90140839C01C90101964091F8
S1134D203803F90140839C01C9010196409139037C
S1134D30F90140838C01045011090F2EFAE09F2ED3
S1134D40F02D5EC1980189010F5F1F4FF901208189
S1134D50222F30E020503E4FF9012081D22E9801BD
S1134D6089010F5F1F4FF9012081222F30E020506D
S1134D703E4FF9012081A22E980189010F5F1F4F38
S1134D80F9012081222F30E020503E4FF90120818B
S1134D90B22E980189010F5F1F4FF9012081222F44
S1134DA030E020503E4FF9012081C22E4A2D292D9A
S1134DB030E020503D4FF90120812427A22E7C01B0
S1134DC0F0E1EF1AF1089C01C90101966A2DA701CF
S1134DD07A017FEFE71AF70AFA0140814627F901C1
S1134DE040839C01C90101966B2DA7017A01FFEF55
S1134DF0EF1AFF0AFA0140814627F90140839C011A
S1134E00C90101966C2DA7017A01FFEFEF1AFF0A81
S1134E10FA0140814627F90140839C01C9010196AA
S1134E206D2DA7017A01FFEFEF1AFF0AFA01408105
S1134E304627F90140839C01C9010196A8018A0112
S1134E400F5F1F4FFA016081A7017A01FFEFEF1A8C
S1134E50FF0AFA0140814627F90140839C01C901F8
S1134E600196A8018A010F5F1F4FFA016081A70113
S1134E707A01FFEFEF1AFF0AFA0140814627F90190
S1134E8040839C01C9010196A8018A010F5F1F4F4D
S1134E90FA016081A7017A01FFEFEF1AFF0AFA0114
S1134EA040814627F90140839C01C9010196A8016C
S1134EB08A010F5F1F4FFA016081A7017A01FFEF9A
S1134EC0EF1AFF0AFA0140814627F90140839C0149
S1134ED0C9010196A8018A010F5F1F4FFA01608181
S1134EE0A7017A01FFEFEF1AFF0AFA014081462772
S1134EF0F90140839C01C9010196A8018A010F5F51
S1134F001F4FFA016081A7017A01FFEFEF1AFF0A30
S1134F10FA0140814627F90140839C01C9010196A9
S1134F20A8018A010F5F1F4FFA016081A7017A016E
S1134F30FFEFEF1AFF0AFA0140814627F901408387
S1134F409C01C9010196A8018A010F5F1F4FFA0154
S1134F506081A7017A01FFEFEF1AFF0AFA0140818D
S1134F604627F90140839C01C9010196A8018A01E1
S1134F700F5F1F4FFA016081A7017A01FFEFEF1A5B
S1134F80FF0AFA0140814627F90140839C01C901C7
S1134F900196A8018A010F5F1F4FFA016081A701E2
S1134FA07A01FFEFEF1AFF0AFA0140814627F9015F
S1134FB040839C01C9010196A8018A010F5F1F4F1C
S1134FC0FA016081A7017A01FFEFEF1AFF0AFA01E3
S1134FD040814627F90140839C01C9010196A8013B
S1134FE08A010F5F1F4FFA016081A7017A01FFEF69
S1134FF0EF1AFF0AFA0140814627F90140839A9487
S1135000992009F09FCE0000DF91CF911F910F915D
S1135010FF90EF90DF90CF90BF90AF909F90089556
S11350201F93CF93DF93CDB7DEB7C05DD1090FB621
S1135030F894DEBF0FBECDBF80E1EAE1F3E0DE010C
S1135040519601900D928A95E1F7CE0181960E94C6
S11350501D26CE0181969E012F5F3F4FB9010E940C
S113506074091FE017C0812F90E09E012F5F3F4F0E
S1135070820F931FFC014081812F90E09E012F5EDF
S11350803F4F820F931FFC018081481731F4812F19
S11350901FEF180F112339F701C00000CE018196CC
S11350A09E012F5F3F4FA9019E012F5F3F4FB90122
S11350B00E94A7001FE014C0812F90E09E012F5F83
S11350C03F4F820F931FFC012081812F90E0865F68
S11350D09C4FFC018081281731F4812F1FEF180F9A
S11350E0112351F701C0000080E090E0C053DF4F6E
S11350F00FB6F894DEBF0FBECDBFDF91CF911F91E5
S10951000895F894FFCFAE
S113510652096AD53036A538BF40A39E81F3D7FB32
S11351167CE339829B2FFF87348E4344C4DEE9CB7C
S1135126547B9432A6C2233DEE4C950B42FAC34EF1
S1135136082EA16628D924B2765BA2496D8BD125A7
S113514672F8F66486689816D4A45CCC5D65B6924B
S11351566C704850FDEDB9DA5E154657A78D9D84EF
S113516690D8AB008CBCD30AF7E45805B8B345060F
S1135176D02C1E8FCA3F0F02C1AFBD0301138A6B29
S11351863A9111414F67DCEA97F2CFCEF0B4E67359
S113519696AC7422E7AD3585E2F937E81C75DF6E07
S11351A647F11A711D29C5896FB7620EAA18BE1B6D
S11351B6FC563E4BC6D279209ADBC0FE78CD5AF413
S11351C61FDDA8338807C731B11210592780EC5F59
S11351D660517FA919B54A0D2DE57A9F93C99CEFB5
S11351E6A0E03B4DAE2AF5B0C8EBBB3C83539961B6
S11351F6172B047EBA77D626E169146355210C7DF4
S1135206637C777BF26B6FC53001672BFED7AB7679
S1135216CA82C97DFA5947F0ADD4A2AF9CA472C024
S1135226B7FD9326363FF7CC34A5E5F171D8311591
S113523604C723C31896059A071280E2EB27B275B2
S113524609832C1A1B6E5AA0523BD6B329E32F842A
S113525653D100ED20FCB15B6ACBBE394A4C58CF22
S1135266D0EFAAFB434D338545F9027F503C9FA8F6
S113527651A3408F929D38F5BCB6DA2110FFF3D2C4
S1135286CD0C13EC5F974417C4A77E3D645D197378
S113529660814FDC222A908846EEB814DE5E0BDB72
S11352A6E0323A0A4906245CC2D3AC629195E479A9
S11352B6E7C8376D8DD54EA96C56F4EA657AAE0803
S11352C6BA78252E1CA6B4C6E8DD741F4BBD8B8A9E
S11352D6703EB5664803F60E613557B986C11D9E04
S11352E6E1F8981169D98E949B1E87E9CE5528DF7B
S11352F68CA1890DBFE6426841992D0FB054BB16A7
S113530601020408102040801B3600112233445544
S113531666778899AABBCCDDEEFF69C4E0D86A7BC0
S11353260430D8CDB78070B4C55A00010203040511
S10D5336060708090A0B0C0D0E0F00
S9030000FC
